:020000040800F2
:10000000005000206D020008BD020008BD0200087B
:10001000BD020008BD020008BD020008000000008B
:10002000000000000000000000000000BD02000809
:10003000BD02000800000000BD020008BD0200086B
:10004000BD020008BD020008BD020008BD02000894
:10005000BD020008BD020008BD020008BD02000884
:10006000BD020008BD020008BD020008BD02000874
:10007000BD020008BD020008BD020008BD02000864
:10008000BD020008BD020008BD020008BD02000854
:10009000BD020008BD020008BD020008BD02000844
:1000A000BD020008BD020008BD020008BD02000834
:1000B000BD020008BD020008BD020008BD02000824
:1000C000BD020008BD020008BD020008BD02000814
:1000D000BD020008BD020008BD020008BD02000804
:1000E000BD020008BD02000800000000BD020008BB
:1000F000BD020008BD020008BD020008BD020008E4
:10010000BD020008BD020008BD020008BD020008D3
:10011000BD020008BD020008BD020008BD020008C3
:10012000BD020008BD020008BD020008BD020008B3
:1001300010B5054C237833B9044B13B10448AFF321
:1001400000800123237010BD00000020000000008B
:100150000803000808B5034B1BB103490348AFF37C
:10016000008008BD00000000040000200803000813
:1001700080B500AF00F008F8024800F061F800BF59
:10018000FDE700BF2003000880B400AF1E4B9B6951
:100190001D4A43F0040393611B4B9B691A4A43F4C5
:1001A00080439361194B5B68184A23F0F003536056
:1001B000164B5B68154A43F0B0035360134B5B6802
:1001C000124A23F470635360104B5B680F4A43F488
:1001D000806353600E4B40F241329A600C4BDB68F7
:1001E0000B4A43F00803D360094BDB68084A43F02D
:1001F0000403D360064BDB68054A43F40053D36025
:1002000000BFBD4680BC704700100240000801409E
:100210000038014080B483B000AF0346FB7100BFDB
:10022000064B1B6803F08003002BF9D0034AFB79CF
:10023000536000BF0C37BD4680BC7047003801409A
:1002400080B582B000AF786006E07B685A1C7A60A7
:100250001B781846FFF7DEFF7B681B78002BF4D174
:1002600000BF00BF0837BD4680BD00000D48854671
:10027000AFF300800C480D490D4A002302E0D4582A
:10028000C4500433C4188C42F9D30A4A0A4C0023E0
:1002900001E013600432A242FBD300F011F8FFF733
:1002A00067FFFEE700500020000000200000002053
:1002B00030030008000000201C000020FEE70000C2
:1002C00070B500260C4D0D4C641BA410A64209D13C
:1002D00000F01AF800260A4D0A4C641BA410A6422E
:1002E00005D170BD55F8043B98470136EEE755F847
:1002F000043B98470136F2E728030008280300086A
:10030000280300082C030008F8B500BFF8BC08BC9F
:100310009E467047F8B500BFF8BC08BC9E467047C3
:0803200048454C4C4F0D0A004A
:040328005501000873
:04032C003101000893
:040000050800026D80
:00000001FF
