:020000040800F2
:100000000050002099030008E9030008E9030008F4
:10001000E9030008E9030008E90300080000000004
:10002000000000000000000000000000E9030008DC
:10003000E903000800000000E9030008E9030008E4
:10004000E9030008E9030008E9030008E9030008E0
:10005000E9030008E9030008E9030008E9030008D0
:10006000E9030008E9030008E9030008E9030008C0
:10007000E9030008E9030008E9030008E9030008B0
:10008000E9030008E9030008E9030008E9030008A0
:10009000E9030008E9030008E9030008E903000890
:1000A000E9030008E9030008E9030008E903000880
:1000B000E9030008E9030008E9030008E903000870
:1000C000E9030008E9030008E9030008E903000860
:1000D000E903000871020008E9030008E9030008C9
:1000E000E9030008E903000800000000E903000834
:1000F000E9030008E9030008E9030008E903000830
:10010000E9030008E9030008E9030008E90300081F
:10011000E9030008E9030008E9030008E90300080F
:10012000E9030008E9030008E9030008E9030008FF
:1001300010B5054C237833B9044B13B10448AFF321
:1001400000800123237010BD00000020000000008B
:100150003404000808B5034B1BB103490348AFF34F
:10016000008008BD000000000400002034040008E6
:1001700080B582B000AF00F02DF8074800F0C4F859
:10018000FB1D184600F0D6F80346002BF8D1FB798A
:10019000184600F0A3F8F3E74C04000880B483B0DD
:1001A00000AF0346FB7197F90730002B0BDBFB799F
:1001B00003F01F02064997F907305B09012000FA96
:1001C00002F241F8232000BF0C37BD4680BC7047C7
:1001D00000E100E080B500AF224B9B69214A43F06B
:1001E000040393611F4B9B691E4A43F48043936150
:1001F0001D4B5B681C4A23F0F00353601A4B5B688D
:10020000194A43F0B0035360174B5B68164A23F456
:1002100070635360144B5B68134A43F4806353600C
:10022000124B41F64C529A60104BDB680F4A43F078
:100230000803D3600D4BDB680C4A43F00403D36022
:100240000A4BDB68094A43F02003D360074BDB68A5
:10025000064A43F40053D3602520FFF79FFF00BFF9
:1002600080BD00BF0010024000080140003801407E
:1002700080B483B000AF174B1B6803F02003002B42
:1002800022D0154BB3F840309BB201335A4203F0F1
:100290003F0302F03F0258BF5342FB800D4B5B68A7
:1002A0007B710D4BB3F842309BB2FA889A420BD067
:1002B000094BB3F840309BB21946074A7B79535437
:1002C000054AFB88A2F8403000BF0C37BD4680BC11
:1002D000704700BF003801401C00002080B483B08C
:1002E00000AF0346FB7100BF064B1B6803F08003A1
:1002F000002BF9D0034AFB79536000BF0C37BD4691
:1003000080BC70470038014080B582B000AF786093
:1003100006E07B685A1C7A601B781846FFF7DEFF00
:100320007B681B78002BF4D100BF00BF0837BD46A7
:1003300080BD000080B483B000AF7860154BB3F887
:1003400040309AB2134BB3F842309BB29A421BD062
:10035000104BB3F842309BB21A460E4B9B5CDAB29C
:100360007B681A700B4BB3F842309BB201335A4290
:1003700003F03F0302F03F0258BF53429AB2054BCD
:10038000A3F84220002300E0012318460C37BD46A5
:1003900080BC70471C0000200D488546AFF30080EC
:1003A0000C480D490D4A002302E0D458C4500433D0
:1003B000C4188C42F9D30A4A0A4C002301E01360A6
:1003C0000432A242FBD300F011F8FFF7D1FEFEE7A2
:1003D0000050002000000020000000205C04000805
:1003E0000000002060000020FEE7000070B500263D
:1003F0000C4D0D4C641BA410A64209D100F01AF854
:1004000000260A4D0A4C641BA410A64205D170BDFB
:1004100055F8043B98470136EEE755F8043B9847FA
:100420000136F2E75404000854040008540400089C
:1004300058040008F8B500BFF8BC08BC9E467047D9
:0C044000F8B500BFF8BC08BC9E46704731
:08044C0048454C4C4F0D0A001D
:040454005501000846
:040458003101000866
:040000050800039953
:00000001FF
