:020000040800F2
:100000000050002021050008710500087105000856
:100010007105000871050008710500080000000066
:100020000000000000000000000000007105000852
:100030007105000800000000710500087105000846
:1000400071050008710500087105000871050008B8
:1000500071050008710500087105000871050008A8
:100060007105000871050008710500087105000898
:100070007105000871050008710500087105000888
:100080007105000871050008710500087105000878
:100090007105000871050008710500087105000868
:1000A0007105000871050008710500087105000858
:1000B0007105000871050008710500087105000848
:1000C0007105000871050008710500087105000838
:1000D00071050008A90100087105000871050008F4
:1000E0007105000871050008000000007105000896
:1000F0007105000871050008710500087105000808
:1001000071050008710500087105000871050008F7
:1001100071050008710500087105000871050008E7
:1001200071050008710500087105000871050008D7
:1001300010B5054C237833B9044B13B10448AFF321
:1001400000800123237010BD00000020000000008B
:10015000BC05000808B5034B1BB103490348AFF3C6
:10016000008008BD0000000004000020BC0500085D
:1001700080B582B000AF00F011F8074800F0ACF88D
:10018000FB1D184600F0C2F80346002BF8D1FB799E
:10019000184600F071F8F3E7D405000880B500AF09
:1001A00000F000F900BF80BD80B582B000AF00F064
:1001B0009BF90346002B02D000F0A2F954E000F0B6
:1001C00069F90346002B21D0294BB3F800319BB2CB
:1001D00001335A42DBB2D2B258BF5342FB8000F027
:1001E0003FF903467B71224BB3F802319BB2FA8888
:1001F0009A420BD01E4BB3F800319BB219461C4AF1
:100200007B7953541A4AFB88A2F8003100F034F984
:100210000346002B28D0174BB3F800319AB2154B88
:10022000B3F802319BB29A4202D100F04FF91BE0C1
:10023000104BB3F802319BB21A460E4B9B5C3B71DC
:100240000C4BB3F802319BB201335A4203F07F03E7
:1002500002F07F0258BF53429AB2064BA3F8022124
:100260003B79184600F0ECF80837BD4680BD00BF6A
:100270001C0000202001002080B584B000AF0346A0
:10028000FB71144BB3F800319BB201335A4203F0B7
:100290007F0302F07F0258BF5342FB810D4BB3F83E
:1002A00002319BB2FA899A420FD00A4BB3F800315F
:1002B0009BB21946074AFB795354064AFB89A2F8B8
:1002C000003100F0F5F8002300E001231846103754
:1002D000BD4680BD2001002080B582B000AF7860AF
:1002E0000BE000BF7B681B781846FFF7C5FF03468D
:1002F000012BF7D07B6801337B607B681B78002B78
:10030000EFD100BF00BF0837BD4680BD80B483B0C9
:1003100000AF7860144BB3F800319AB2124BB3F8C7
:1003200002319BB29A4219D00F4BB3F802319BB203
:100330001A460D4B9B5CDAB27B681A700A4BB3F815
:1003400002319BB201335A42DBB2D2B258BF5342A0
:100350009AB2054BA3F80221002300E001231846BE
:100360000C37BD4680BC70471C00002080B483B0B1
:1003700000AF0346FB7197F90730002B0BDBFB79CD
:1003800003F01F02064997F907305B09012000FAC4
:1003900002F241F8232000BF0C37BD4680BC7047F5
:1003A00000E100E080B500AF224B9B69214A43F099
:1003B000040393611F4B9B691E4A43F4804393617E
:1003C0001D4B5B681C4A23F0F00353601A4B5B68BB
:1003D000194A43F0B0035360174B5B68164A23F485
:1003E00070635360144B5B68134A43F4806353603B
:1003F000124B40F241329A60104BDB680F4A43F0D7
:100400000403D3600D4BDB680C4A43F00803D36050
:100410000A4BDB68094A43F02003D360074BDB68D3
:10042000064A43F40053D3602520FFF79FFF00BF27
:1004300080BD00BF001002400008014000380140AC
:1004400080B483B000AF0346FB71044AFB7953606C
:1004500000BF0C37BD4680BC704700BF003801406C
:1004600080B400AF034B5B68DBB21846BD4680BC6E
:10047000704700BF0038014080B400AF044B1B68D8
:10048000DBB223F07F03DBB21846BD4680BC704769
:100490000038014080B400AF044B1B68DBB203F0AE
:1004A0002003DBB21846BD4680BC704700380140CF
:1004B00080B400AF044BDB68034A43F08003D36091
:1004C00000BFBD4680BC70470038014080B400AF1B
:1004D000044BDB68034A23F08003D36000BFBD46B2
:1004E00080BC70470038014080B400AF034B1B68EC
:1004F00003F00E031846BD4680BC7047003801402B
:1005000080B483B000AF054B5B68DBB2FB71FB7955
:1005100000BF0C37BD4680BC704700BF00380140AB
:100520000D488546AFF300800C480D490D4A002365
:1005300002E0D458C4500433C4188C42F9D30A4A98
:100540000A4C002301E013600432A242FBD300F006
:1005500011F8FFF70DFEFEE700500020000000201C
:1005600000000020E4050008000000202402002014
:10057000FEE7000070B500260C4D0D4C641BA41066
:10058000A64209D100F01AF800260A4D0A4C641B55
:10059000A410A64205D170BD55F8043B984701361A
:1005A000EEE755F8043B98470136F2E7DC05000812
:1005B000DC050008DC050008E0050008F8B500BF10
:1005C000F8BC08BC9E467047F8B500BFF8BC08BC34
:0405D0009E4670478C
:0805D40048454C4C4F0D0A0094
:0405DC0055010008BD
:0405E00031010008DD
:0400000508000521C9
:00000001FF
